{
  "_format": "hh-sol-artifact-1",
  "contractName": "DomainName",
  "sourceName": "contracts/DomainName.sol",
  "abi": [
    {
      "inputs": [
        {
          "internalType": "string",
          "name": "_tld",
          "type": "string"
        }
      ],
      "stateMutability": "payable",
      "type": "constructor"
    },
    {
      "anonymous": false,
      "inputs": [
        {
          "indexed": true,
          "internalType": "address",
          "name": "owner",
          "type": "address"
        },
        {
          "indexed": true,
          "internalType": "address",
          "name": "approved",
          "type": "address"
        },
        {
          "indexed": true,
          "internalType": "uint256",
          "name": "tokenId",
          "type": "uint256"
        }
      ],
      "name": "Approval",
      "type": "event"
    },
    {
      "anonymous": false,
      "inputs": [
        {
          "indexed": true,
          "internalType": "address",
          "name": "owner",
          "type": "address"
        },
        {
          "indexed": true,
          "internalType": "address",
          "name": "operator",
          "type": "address"
        },
        {
          "indexed": false,
          "internalType": "bool",
          "name": "approved",
          "type": "bool"
        }
      ],
      "name": "ApprovalForAll",
      "type": "event"
    },
    {
      "anonymous": false,
      "inputs": [
        {
          "indexed": true,
          "internalType": "address",
          "name": "from",
          "type": "address"
        },
        {
          "indexed": true,
          "internalType": "address",
          "name": "to",
          "type": "address"
        },
        {
          "indexed": true,
          "internalType": "uint256",
          "name": "tokenId",
          "type": "uint256"
        }
      ],
      "name": "Transfer",
      "type": "event"
    },
    {
      "inputs": [],
      "name": "WithDrawal",
      "outputs": [],
      "stateMutability": "nonpayable",
      "type": "function"
    },
    {
      "inputs": [
        {
          "internalType": "address",
          "name": "to",
          "type": "address"
        },
        {
          "internalType": "uint256",
          "name": "tokenId",
          "type": "uint256"
        }
      ],
      "name": "approve",
      "outputs": [],
      "stateMutability": "nonpayable",
      "type": "function"
    },
    {
      "inputs": [
        {
          "internalType": "address",
          "name": "owner",
          "type": "address"
        }
      ],
      "name": "balanceOf",
      "outputs": [
        {
          "internalType": "uint256",
          "name": "",
          "type": "uint256"
        }
      ],
      "stateMutability": "view",
      "type": "function"
    },
    {
      "inputs": [
        {
          "internalType": "string",
          "name": "",
          "type": "string"
        }
      ],
      "name": "domains",
      "outputs": [
        {
          "internalType": "address",
          "name": "",
          "type": "address"
        }
      ],
      "stateMutability": "view",
      "type": "function"
    },
    {
      "inputs": [
        {
          "internalType": "string",
          "name": "name",
          "type": "string"
        }
      ],
      "name": "getAddress",
      "outputs": [
        {
          "internalType": "address",
          "name": "",
          "type": "address"
        }
      ],
      "stateMutability": "view",
      "type": "function"
    },
    {
      "inputs": [
        {
          "internalType": "uint256",
          "name": "tokenId",
          "type": "uint256"
        }
      ],
      "name": "getApproved",
      "outputs": [
        {
          "internalType": "address",
          "name": "",
          "type": "address"
        }
      ],
      "stateMutability": "view",
      "type": "function"
    },
    {
      "inputs": [
        {
          "internalType": "string",
          "name": "name",
          "type": "string"
        }
      ],
      "name": "getRecords",
      "outputs": [
        {
          "internalType": "string",
          "name": "",
          "type": "string"
        }
      ],
      "stateMutability": "view",
      "type": "function"
    },
    {
      "inputs": [
        {
          "internalType": "address",
          "name": "owner",
          "type": "address"
        },
        {
          "internalType": "address",
          "name": "operator",
          "type": "address"
        }
      ],
      "name": "isApprovedForAll",
      "outputs": [
        {
          "internalType": "bool",
          "name": "",
          "type": "bool"
        }
      ],
      "stateMutability": "view",
      "type": "function"
    },
    {
      "inputs": [],
      "name": "name",
      "outputs": [
        {
          "internalType": "string",
          "name": "",
          "type": "string"
        }
      ],
      "stateMutability": "view",
      "type": "function"
    },
    {
      "inputs": [],
      "name": "owner",
      "outputs": [
        {
          "internalType": "address",
          "name": "",
          "type": "address"
        }
      ],
      "stateMutability": "view",
      "type": "function"
    },
    {
      "inputs": [
        {
          "internalType": "uint256",
          "name": "tokenId",
          "type": "uint256"
        }
      ],
      "name": "ownerOf",
      "outputs": [
        {
          "internalType": "address",
          "name": "",
          "type": "address"
        }
      ],
      "stateMutability": "view",
      "type": "function"
    },
    {
      "inputs": [
        {
          "internalType": "string",
          "name": "name",
          "type": "string"
        }
      ],
      "name": "price",
      "outputs": [
        {
          "internalType": "uint256",
          "name": "",
          "type": "uint256"
        }
      ],
      "stateMutability": "pure",
      "type": "function"
    },
    {
      "inputs": [
        {
          "internalType": "string",
          "name": "",
          "type": "string"
        }
      ],
      "name": "records",
      "outputs": [
        {
          "internalType": "string",
          "name": "",
          "type": "string"
        }
      ],
      "stateMutability": "view",
      "type": "function"
    },
    {
      "inputs": [
        {
          "internalType": "string",
          "name": "name",
          "type": "string"
        }
      ],
      "name": "register",
      "outputs": [],
      "stateMutability": "payable",
      "type": "function"
    },
    {
      "inputs": [
        {
          "internalType": "address",
          "name": "from",
          "type": "address"
        },
        {
          "internalType": "address",
          "name": "to",
          "type": "address"
        },
        {
          "internalType": "uint256",
          "name": "tokenId",
          "type": "uint256"
        }
      ],
      "name": "safeTransferFrom",
      "outputs": [],
      "stateMutability": "nonpayable",
      "type": "function"
    },
    {
      "inputs": [
        {
          "internalType": "address",
          "name": "from",
          "type": "address"
        },
        {
          "internalType": "address",
          "name": "to",
          "type": "address"
        },
        {
          "internalType": "uint256",
          "name": "tokenId",
          "type": "uint256"
        },
        {
          "internalType": "bytes",
          "name": "data",
          "type": "bytes"
        }
      ],
      "name": "safeTransferFrom",
      "outputs": [],
      "stateMutability": "nonpayable",
      "type": "function"
    },
    {
      "inputs": [
        {
          "internalType": "address",
          "name": "operator",
          "type": "address"
        },
        {
          "internalType": "bool",
          "name": "approved",
          "type": "bool"
        }
      ],
      "name": "setApprovalForAll",
      "outputs": [],
      "stateMutability": "nonpayable",
      "type": "function"
    },
    {
      "inputs": [
        {
          "internalType": "string",
          "name": "name",
          "type": "string"
        },
        {
          "internalType": "string",
          "name": "record",
          "type": "string"
        }
      ],
      "name": "setRecords",
      "outputs": [],
      "stateMutability": "nonpayable",
      "type": "function"
    },
    {
      "inputs": [
        {
          "internalType": "bytes4",
          "name": "interfaceId",
          "type": "bytes4"
        }
      ],
      "name": "supportsInterface",
      "outputs": [
        {
          "internalType": "bool",
          "name": "",
          "type": "bool"
        }
      ],
      "stateMutability": "view",
      "type": "function"
    },
    {
      "inputs": [],
      "name": "symbol",
      "outputs": [
        {
          "internalType": "string",
          "name": "",
          "type": "string"
        }
      ],
      "stateMutability": "view",
      "type": "function"
    },
    {
      "inputs": [],
      "name": "tld",
      "outputs": [
        {
          "internalType": "string",
          "name": "",
          "type": "string"
        }
      ],
      "stateMutability": "view",
      "type": "function"
    },
    {
      "inputs": [
        {
          "internalType": "uint256",
          "name": "tokenId",
          "type": "uint256"
        }
      ],
      "name": "tokenURI",
      "outputs": [
        {
          "internalType": "string",
          "name": "",
          "type": "string"
        }
      ],
      "stateMutability": "view",
      "type": "function"
    },
    {
      "inputs": [
        {
          "internalType": "address",
          "name": "from",
          "type": "address"
        },
        {
          "internalType": "address",
          "name": "to",
          "type": "address"
        },
        {
          "internalType": "uint256",
          "name": "tokenId",
          "type": "uint256"
        }
      ],
      "name": "transferFrom",
      "outputs": [],
      "stateMutability": "nonpayable",
      "type": "function"
    }
  ],
  "bytecode": "0x6080604052604051806108a0016040528061086b815260200162004fe461086b9139600c9081620000319190620005b1565b506040518060400160405280600d81526020017f3c2f746578743e3c2f7376673e00000000000000000000000000000000000000815250600d9081620000789190620005b1565b506040516200584f3803806200584f83398181016040528101906200009e9190620007fc565b6040518060400160405280601281526020017f4e696e6a61204e616d65205365727669636500000000000000000000000000008152506040518060400160405280600381526020017f4e4e53000000000000000000000000000000000000000000000000000000000081525081600090816200011b9190620005b1565b5080600190816200012d9190620005b1565b5050508060099081620001419190620005b1565b50620002206040518060400160405280601d81526020017f25732074686520446f6d61696e2068617320496e697469616c697a6564000000815250600980546200018b90620003a0565b80601f0160208091040260200160405190810160405280929190818152602001828054620001b990620003a0565b80156200020a5780601f10620001de576101008083540402835291602001916200020a565b820191906000526020600020905b815481529060010190602001808311620001ec57829003601f168201915b50505050506200026860201b620015e71760201c565b33600b60006101000a81548173ffffffffffffffffffffffffffffffffffffffff021916908373ffffffffffffffffffffffffffffffffffffffff16021790555050620008da565b6200030a8282604051602401620002819291906200089f565b6040516020818303038152906040527f4b5c4277000000000000000000000000000000000000000000000000000000007bffffffffffffffffffffffffffffffffffffffffffffffffffffffff19166020820180517bffffffffffffffffffffffffffffffffffffffffffffffffffffffff83818316178352505050506200030e60201b60201c565b5050565b60008151905060006a636f6e736f6c652e6c6f679050602083016000808483855afa5050505050565b600081519050919050565b7f4e487b7100000000000000000000000000000000000000000000000000000000600052604160045260246000fd5b7f4e487b7100000000000000000000000000000000000000000000000000000000600052602260045260246000fd5b60006002820490506001821680620003b957607f821691505b602082108103620003cf57620003ce62000371565b5b50919050565b60008190508160005260206000209050919050565b60006020601f8301049050919050565b600082821b905092915050565b600060088302620004397fffffffffffffffffffffffffffffffffffffffffffffffffffffffffffffffff82620003fa565b620004458683620003fa565b95508019841693508086168417925050509392505050565b6000819050919050565b6000819050919050565b6000620004926200048c62000486846200045d565b62000467565b6200045d565b9050919050565b6000819050919050565b620004ae8362000471565b620004c6620004bd8262000499565b84845462000407565b825550505050565b600090565b620004dd620004ce565b620004ea818484620004a3565b505050565b5b81811015620005125762000506600082620004d3565b600181019050620004f0565b5050565b601f82111562000561576200052b81620003d5565b6200053684620003ea565b8101602085101562000546578190505b6200055e6200055585620003ea565b830182620004ef565b50505b505050565b600082821c905092915050565b6000620005866000198460080262000566565b1980831691505092915050565b6000620005a1838362000573565b9150826002028217905092915050565b620005bc8262000337565b67ffffffffffffffff811115620005d857620005d762000342565b5b620005e48254620003a0565b620005f182828562000516565b600060209050601f83116001811462000629576000841562000614578287015190505b62000620858262000593565b86555062000690565b601f1984166200063986620003d5565b60005b8281101562000663578489015182556001820191506020850194506020810190506200063c565b868310156200068357848901516200067f601f89168262000573565b8355505b6001600288020188555050505b505050505050565b6000604051905090565b600080fd5b600080fd5b600080fd5b600080fd5b6000601f19601f8301169050919050565b620006d282620006b6565b810181811067ffffffffffffffff82111715620006f457620006f362000342565b5b80604052505050565b60006200070962000698565b9050620007178282620006c7565b919050565b600067ffffffffffffffff8211156200073a576200073962000342565b5b6200074582620006b6565b9050602081019050919050565b60005b838110156200077257808201518184015260208101905062000755565b60008484015250505050565b6000620007956200078f846200071c565b620006fd565b905082815260208101848484011115620007b457620007b3620006b1565b5b620007c184828562000752565b509392505050565b600082601f830112620007e157620007e0620006ac565b5b8151620007f38482602086016200077e565b91505092915050565b600060208284031215620008155762000814620006a2565b5b600082015167ffffffffffffffff811115620008365762000835620006a7565b5b6200084484828501620007c9565b91505092915050565b600082825260208201905092915050565b60006200086b8262000337565b6200087781856200084d565b93506200088981856020860162000752565b6200089481620006b6565b840191505092915050565b60006040820190508181036000830152620008bb81856200085e565b90508181036020830152620008d181846200085e565b90509392505050565b6146fa80620008ea6000396000f3fe6080604052600436106101405760003560e01c8063672cd8b0116100b6578063b88d4fde1161006f578063b88d4fde14610480578063bf40fac1146104a9578063c87b56dd146104e6578063e985e9c514610523578063f2c298be14610560578063fe2c61981461057c57610140565b8063672cd8b01461035e57806370a082311461038757806386e80b71146103c45780638da5cb5b1461040157806395d89b411461042c578063a22cb4651461045757610140565b80632644923511610108578063264492351461023c5780632d5514321461027957806342842e0e146102a4578063541e771d146102cd57806358f477d41461030a5780636352211e1461032157610140565b806301ffc9a71461014557806306fdde0314610182578063081812fc146101ad578063095ea7b3146101ea57806323b872dd14610213575b600080fd5b34801561015157600080fd5b5061016c60048036038101906101679190612b52565b6105b9565b6040516101799190612b9a565b60405180910390f35b34801561018e57600080fd5b5061019761069b565b6040516101a49190612c45565b60405180910390f35b3480156101b957600080fd5b506101d460048036038101906101cf9190612c9d565b61072d565b6040516101e19190612d0b565b60405180910390f35b3480156101f657600080fd5b50610211600480360381019061020c9190612d52565b610773565b005b34801561021f57600080fd5b5061023a60048036038101906102359190612d92565b61088a565b005b34801561024857600080fd5b50610263600480360381019061025e9190612f1a565b6108ea565b6040516102709190612d0b565b60405180910390f35b34801561028557600080fd5b5061028e610933565b60405161029b9190612c45565b60405180910390f35b3480156102b057600080fd5b506102cb60048036038101906102c69190612d92565b6109c1565b005b3480156102d957600080fd5b506102f460048036038101906102ef9190612f1a565b6109e1565b6040516103019190612c45565b60405180910390f35b34801561031657600080fd5b5061031f610a97565b005b34801561032d57600080fd5b5061034860048036038101906103439190612c9d565b610bdc565b6040516103559190612d0b565b60405180910390f35b34801561036a57600080fd5b5061038560048036038101906103809190612fc3565b610c62565b005b34801561039357600080fd5b506103ae60048036038101906103a99190613044565b610d46565b6040516103bb9190613080565b60405180910390f35b3480156103d057600080fd5b506103eb60048036038101906103e6919061309b565b610dfd565b6040516103f89190612c45565b60405180910390f35b34801561040d57600080fd5b50610416610eb0565b6040516104239190612d0b565b60405180910390f35b34801561043857600080fd5b50610441610ed6565b60405161044e9190612c45565b60405180910390f35b34801561046357600080fd5b5061047e60048036038101906104799190613114565b610f68565b005b34801561048c57600080fd5b506104a760048036038101906104a291906131f5565b610f7e565b005b3480156104b557600080fd5b506104d060048036038101906104cb919061309b565b610fe0565b6040516104dd9190612d0b565b60405180910390f35b3480156104f257600080fd5b5061050d60048036038101906105089190612c9d565b61102b565b60405161051a9190612c45565b60405180910390f35b34801561052f57600080fd5b5061054a60048036038101906105459190613278565b61113d565b6040516105579190612b9a565b60405180910390f35b61057a6004803603810190610575919061309b565b6111d1565b005b34801561058857600080fd5b506105a3600480360381019061059e9190612f1a565b61157c565b6040516105b09190613080565b60405180910390f35b60007f80ac58cd000000000000000000000000000000000000000000000000000000007bffffffffffffffffffffffffffffffffffffffffffffffffffffffff1916827bffffffffffffffffffffffffffffffffffffffffffffffffffffffff1916148061068457507f5b5e139f000000000000000000000000000000000000000000000000000000007bffffffffffffffffffffffffffffffffffffffffffffffffffffffff1916827bffffffffffffffffffffffffffffffffffffffffffffffffffffffff1916145b80610694575061069382611683565b5b9050919050565b6060600080546106aa906132e7565b80601f01602080910402602001604051908101604052809291908181526020018280546106d6906132e7565b80156107235780601f106106f857610100808354040283529160200191610723565b820191906000526020600020905b81548152906001019060200180831161070657829003601f168201915b5050505050905090565b6000610738826116ed565b6004600083815260200190815260200160002060009054906101000a900473ffffffffffffffffffffffffffffffffffffffff169050919050565b600061077e82610bdc565b90508073ffffffffffffffffffffffffffffffffffffffff168373ffffffffffffffffffffffffffffffffffffffff16036107ee576040517f08c379a00000000000000000000000000000000000000000000000000000000081526004016107e59061338a565b60405180910390fd5b8073ffffffffffffffffffffffffffffffffffffffff1661080d611738565b73ffffffffffffffffffffffffffffffffffffffff16148061083c575061083b81610836611738565b61113d565b5b61087b576040517f08c379a00000000000000000000000000000000000000000000000000000000081526004016108729061341c565b60405180910390fd5b6108858383611740565b505050565b61089b610895611738565b826117f9565b6108da576040517f08c379a00000000000000000000000000000000000000000000000000000000081526004016108d1906134ae565b60405180910390fd5b6108e583838361188e565b505050565b6007818051602081018201805184825260208301602085012081835280955050505050506000915054906101000a900473ffffffffffffffffffffffffffffffffffffffff1681565b60098054610940906132e7565b80601f016020809104026020016040519081016040528092919081815260200182805461096c906132e7565b80156109b95780601f1061098e576101008083540402835291602001916109b9565b820191906000526020600020905b81548152906001019060200180831161099c57829003601f168201915b505050505081565b6109dc83838360405180602001604052806000815250610f7e565b505050565b6008818051602081018201805184825260208301602085012081835280955050505050506000915090508054610a16906132e7565b80601f0160208091040260200160405190810160405280929190818152602001828054610a42906132e7565b8015610a8f5780601f10610a6457610100808354040283529160200191610a8f565b820191906000526020600020905b815481529060010190602001808311610a7257829003601f168201915b505050505081565b600b60009054906101000a900473ffffffffffffffffffffffffffffffffffffffff1673ffffffffffffffffffffffffffffffffffffffff163373ffffffffffffffffffffffffffffffffffffffff1614610b27576040517f08c379a0000000000000000000000000000000000000000000000000000000008152600401610b1e9061351a565b60405180910390fd5b600047905060003373ffffffffffffffffffffffffffffffffffffffff1682604051610b529061356b565b60006040518083038185875af1925050503d8060008114610b8f576040519150601f19603f3d011682016040523d82523d6000602084013e610b94565b606091505b5050905080610bd8576040517f08c379a0000000000000000000000000000000000000000000000000000000008152600401610bcf906135cc565b60405180910390fd5b5050565b600080610be883611b87565b9050600073ffffffffffffffffffffffffffffffffffffffff168173ffffffffffffffffffffffffffffffffffffffff1603610c59576040517f08c379a0000000000000000000000000000000000000000000000000000000008152600401610c5090613638565b60405180910390fd5b80915050919050565b3373ffffffffffffffffffffffffffffffffffffffff1660078585604051610c8b929190613688565b908152602001604051809103902060009054906101000a900473ffffffffffffffffffffffffffffffffffffffff1673ffffffffffffffffffffffffffffffffffffffff1614610d10576040517f08c379a0000000000000000000000000000000000000000000000000000000008152600401610d07906136ed565b60405180910390fd5b818160088686604051610d24929190613688565b90815260200160405180910390209182610d3f9291906138c4565b5050505050565b60008073ffffffffffffffffffffffffffffffffffffffff168273ffffffffffffffffffffffffffffffffffffffff1603610db6576040517f08c379a0000000000000000000000000000000000000000000000000000000008152600401610dad90613a06565b60405180910390fd5b600360008373ffffffffffffffffffffffffffffffffffffffff1673ffffffffffffffffffffffffffffffffffffffff168152602001908152602001600020549050919050565b606060088383604051610e11929190613688565b90815260200160405180910390208054610e2a906132e7565b80601f0160208091040260200160405190810160405280929190818152602001828054610e56906132e7565b8015610ea35780601f10610e7857610100808354040283529160200191610ea3565b820191906000526020600020905b815481529060010190602001808311610e8657829003601f168201915b5050505050905092915050565b600b60009054906101000a900473ffffffffffffffffffffffffffffffffffffffff1681565b606060018054610ee5906132e7565b80601f0160208091040260200160405190810160405280929190818152602001828054610f11906132e7565b8015610f5e5780601f10610f3357610100808354040283529160200191610f5e565b820191906000526020600020905b815481529060010190602001808311610f4157829003601f168201915b5050505050905090565b610f7a610f73611738565b8383611bc4565b5050565b610f8f610f89611738565b836117f9565b610fce576040517f08c379a0000000000000000000000000000000000000000000000000000000008152600401610fc5906134ae565b60405180910390fd5b610fda84848484611d30565b50505050565b600060078383604051610ff4929190613688565b908152602001604051809103902060009054906101000a900473ffffffffffffffffffffffffffffffffffffffff16905092915050565b6060611036826116ed565b6000600660008481526020019081526020016000208054611056906132e7565b80601f0160208091040260200160405190810160405280929190818152602001828054611082906132e7565b80156110cf5780601f106110a4576101008083540402835291602001916110cf565b820191906000526020600020905b8154815290600101906020018083116110b257829003601f168201915b5050505050905060006110e0611d8c565b905060008151036110f5578192505050611138565b60008251111561112a578082604051602001611112929190613a57565b60405160208183030381529060405292505050611138565b61113384611da3565b925050505b919050565b6000600560008473ffffffffffffffffffffffffffffffffffffffff1673ffffffffffffffffffffffffffffffffffffffff16815260200190815260200160002060008373ffffffffffffffffffffffffffffffffffffffff1673ffffffffffffffffffffffffffffffffffffffff16815260200190815260200160002060009054906101000a900460ff16905092915050565b600061122083838080601f016020809104026020016040519081016040528093929190818152602001838380828437600081840152601f19601f8201169050808301925050505050505061157c565b905080341015611265576040517f08c379a000000000000000000000000000000000000000000000000000000000815260040161125c90613ac7565b60405180910390fd5b60008383600960405160200161127d93929190613bb6565b60405160208183030381529060405290506000600c82600d6040516020016112a793929190613be7565b604051602081830303815290604052905060006112c4600a611e0b565b9050600061131587878080601f016020809104026020016040519081016040528093929190818152602001838380828437600081840152601f19601f82011690508083019250505050505050611e19565b9050600061132282611fce565b905061141660405180606001604052806031815260200161461b6031913989898080601f016020809104026020016040519081016040528093929190818152602001838380828437600081840152601f19601f8201169050808301925050505050505060098054611392906132e7565b80601f01602080910402602001604051908101604052809291908181526020018280546113be906132e7565b801561140b5780601f106113e05761010080835404028352916020019161140b565b820191906000526020600020905b8154815290600101906020018083116113ee57829003601f168201915b50505050508661209c565b600061144c866114258761213e565b8460405160200161143893929190613d94565b60405160208183030381529060405261213e565b90506000816040516020016114619190613e3d565b60405160208183030381529060405290506114936040518060600160405280603981526020016145e2603991396122a1565b6114d26040518060400160405280600e81526020017f46696e616c20746f6b656e555249000000000000000000000000000000000000815250826115e7565b6114f360405180606001604052806039815260200161464c603991396122a1565b6114fd338661233a565b6115078582612358565b3360078b8b60405161151a929190613688565b908152602001604051809103902060006101000a81548173ffffffffffffffffffffffffffffffffffffffff021916908373ffffffffffffffffffffffffffffffffffffffff160217905550611570600a6123c5565b50505050505050505050565b60008061158883611e19565b9050600581116115a35767016345785d8a00009150506115e2565b600681036115bc5767016345785d8a00009150506115e2565b600781036115d5576702c68af0bb1400009150506115e2565b670429d069189e00009150505b919050565b61167f82826040516024016115fd929190613e5f565b6040516020818303038152906040527f4b5c4277000000000000000000000000000000000000000000000000000000007bffffffffffffffffffffffffffffffffffffffffffffffffffffffff19166020820180517bffffffffffffffffffffffffffffffffffffffffffffffffffffffff83818316178352505050506123db565b5050565b60007f01ffc9a7000000000000000000000000000000000000000000000000000000007bffffffffffffffffffffffffffffffffffffffffffffffffffffffff1916827bffffffffffffffffffffffffffffffffffffffffffffffffffffffff1916149050919050565b6116f681612404565b611735576040517f08c379a000000000000000000000000000000000000000000000000000000000815260040161172c90613638565b60405180910390fd5b50565b600033905090565b816004600083815260200190815260200160002060006101000a81548173ffffffffffffffffffffffffffffffffffffffff021916908373ffffffffffffffffffffffffffffffffffffffff160217905550808273ffffffffffffffffffffffffffffffffffffffff166117b383610bdc565b73ffffffffffffffffffffffffffffffffffffffff167f8c5be1e5ebec7d5bd14f71427d1e84f3dd0314c0f7b2291e5b200ac8c7c3b92560405160405180910390a45050565b60008061180583610bdc565b90508073ffffffffffffffffffffffffffffffffffffffff168473ffffffffffffffffffffffffffffffffffffffff1614806118475750611846818561113d565b5b8061188557508373ffffffffffffffffffffffffffffffffffffffff1661186d8461072d565b73ffffffffffffffffffffffffffffffffffffffff16145b91505092915050565b8273ffffffffffffffffffffffffffffffffffffffff166118ae82610bdc565b73ffffffffffffffffffffffffffffffffffffffff1614611904576040517f08c379a00000000000000000000000000000000000000000000000000000000081526004016118fb90613f08565b60405180910390fd5b600073ffffffffffffffffffffffffffffffffffffffff168273ffffffffffffffffffffffffffffffffffffffff1603611973576040517f08c379a000000000000000000000000000000000000000000000000000000000815260040161196a90613f9a565b60405180910390fd5b6119808383836001612445565b8273ffffffffffffffffffffffffffffffffffffffff166119a082610bdc565b73ffffffffffffffffffffffffffffffffffffffff16146119f6576040517f08c379a00000000000000000000000000000000000000000000000000000000081526004016119ed90613f08565b60405180910390fd5b6004600082815260200190815260200160002060006101000a81549073ffffffffffffffffffffffffffffffffffffffff02191690556001600360008573ffffffffffffffffffffffffffffffffffffffff1673ffffffffffffffffffffffffffffffffffffffff168152602001908152602001600020600082825403925050819055506001600360008473ffffffffffffffffffffffffffffffffffffffff1673ffffffffffffffffffffffffffffffffffffffff16815260200190815260200160002060008282540192505081905550816002600083815260200190815260200160002060006101000a81548173ffffffffffffffffffffffffffffffffffffffff021916908373ffffffffffffffffffffffffffffffffffffffff160217905550808273ffffffffffffffffffffffffffffffffffffffff168473ffffffffffffffffffffffffffffffffffffffff167fddf252ad1be2c89b69c2b068fc378daa952ba7f163c4a11628f55a4df523b3ef60405160405180910390a4611b82838383600161256b565b505050565b60006002600083815260200190815260200160002060009054906101000a900473ffffffffffffffffffffffffffffffffffffffff169050919050565b8173ffffffffffffffffffffffffffffffffffffffff168373ffffffffffffffffffffffffffffffffffffffff1603611c32576040517f08c379a0000000000000000000000000000000000000000000000000000000008152600401611c2990614006565b60405180910390fd5b80600560008573ffffffffffffffffffffffffffffffffffffffff1673ffffffffffffffffffffffffffffffffffffffff16815260200190815260200160002060008473ffffffffffffffffffffffffffffffffffffffff1673ffffffffffffffffffffffffffffffffffffffff16815260200190815260200160002060006101000a81548160ff0219169083151502179055508173ffffffffffffffffffffffffffffffffffffffff168373ffffffffffffffffffffffffffffffffffffffff167f17307eab39ab6107e8899845ad3d59bd9653f200f220920489ca2b5937696c3183604051611d239190612b9a565b60405180910390a3505050565b611d3b84848461188e565b611d4784848484612571565b611d86576040517f08c379a0000000000000000000000000000000000000000000000000000000008152600401611d7d90614098565b60405180910390fd5b50505050565b606060405180602001604052806000815250905090565b6060611dae826116ed565b6000611db8611d8c565b90506000815111611dd85760405180602001604052806000815250611e03565b80611de284611fce565b604051602001611df3929190613a57565b6040516020818303038152906040525b915050919050565b600081600001549050919050565b60008060008084519050600092505b80821015611fc3576000858381518110611e4557611e446140b8565b5b602001015160f81c60f81b9050608060f81b817effffffffffffffffffffffffffffffffffffffffffffffffffffffffffffff19161015611e9457600183611e8d9190614116565b9250611faf565b60e060f81b817effffffffffffffffffffffffffffffffffffffffffffffffffffffffffffff19161015611ed657600283611ecf9190614116565b9250611fae565b60f060f81b817effffffffffffffffffffffffffffffffffffffffffffffffffffffffffffff19161015611f1857600383611f119190614116565b9250611fad565b60f8801b817effffffffffffffffffffffffffffffffffffffffffffffffffffffffffffff19161015611f5957600483611f529190614116565b9250611fac565b60fc60f81b817effffffffffffffffffffffffffffffffffffffffffffffffffffffffffffff19161015611f9b57600583611f949190614116565b9250611fab565b600683611fa89190614116565b92505b5b5b5b5b508280611fbb9061414a565b935050611e28565b829350505050919050565b606060006001611fdd846126f8565b01905060008167ffffffffffffffff811115611ffc57611ffb612def565b5b6040519080825280601f01601f19166020018201604052801561202e5781602001600182028036833780820191505090505b509050600082602001820190505b600115612091578080600190039150507f3031323334353637383961626364656600000000000000000000000000000000600a86061a8153600a858161208557612084614192565b5b0494506000850361203c575b819350505050919050565b612138848484846040516024016120b694939291906141c1565b6040516020818303038152906040527f8eafb02b000000000000000000000000000000000000000000000000000000007bffffffffffffffffffffffffffffffffffffffffffffffffffffffff19166020820180517bffffffffffffffffffffffffffffffffffffffffffffffffffffffff83818316178352505050506123db565b50505050565b606060008251036121605760405180602001604052806000815250905061229c565b6000604051806060016040528060408152602001614685604091399050600060036002855161218f9190614116565b612199919061421b565b60046121a5919061424c565b67ffffffffffffffff8111156121be576121bd612def565b5b6040519080825280601f01601f1916602001820160405280156121f05781602001600182028036833780820191505090505b509050600182016020820185865187015b8082101561225c576003820191508151603f8160121c168501518453600184019350603f81600c1c168501518453600184019350603f8160061c168501518453600184019350603f8116850151845360018401935050612201565b5050600386510660018114612278576002811461228b57612293565b603d6001830353603d6002830353612293565b603d60018303535b50505080925050505b919050565b612337816040516024016122b59190612c45565b6040516020818303038152906040527f41304fac000000000000000000000000000000000000000000000000000000007bffffffffffffffffffffffffffffffffffffffffffffffffffffffff19166020820180517bffffffffffffffffffffffffffffffffffffffffffffffffffffffff83818316178352505050506123db565b50565b61235482826040518060200160405280600081525061284b565b5050565b61236182612404565b6123a0576040517f08c379a000000000000000000000000000000000000000000000000000000000815260040161239790614300565b60405180910390fd5b806006600084815260200190815260200160002090816123c09190614320565b505050565b6001816000016000828254019250508190555050565b60008151905060006a636f6e736f6c652e6c6f679050602083016000808483855afa5050505050565b60008073ffffffffffffffffffffffffffffffffffffffff1661242683611b87565b73ffffffffffffffffffffffffffffffffffffffff1614159050919050565b600181111561256557600073ffffffffffffffffffffffffffffffffffffffff168473ffffffffffffffffffffffffffffffffffffffff16146124d95780600360008673ffffffffffffffffffffffffffffffffffffffff1673ffffffffffffffffffffffffffffffffffffffff16815260200190815260200160002060008282546124d191906143f2565b925050819055505b600073ffffffffffffffffffffffffffffffffffffffff168373ffffffffffffffffffffffffffffffffffffffff16146125645780600360008573ffffffffffffffffffffffffffffffffffffffff1673ffffffffffffffffffffffffffffffffffffffff168152602001908152602001600020600082825461255c9190614116565b925050819055505b5b50505050565b50505050565b60006125928473ffffffffffffffffffffffffffffffffffffffff166128a6565b156126eb578373ffffffffffffffffffffffffffffffffffffffff1663150b7a026125bb611738565b8786866040518563ffffffff1660e01b81526004016125dd949392919061447b565b6020604051808303816000875af192505050801561261957506040513d601f19601f8201168201806040525081019061261691906144dc565b60015b61269b573d8060008114612649576040519150601f19603f3d011682016040523d82523d6000602084013e61264e565b606091505b506000815103612693576040517f08c379a000000000000000000000000000000000000000000000000000000000815260040161268a90614098565b60405180910390fd5b805181602001fd5b63150b7a0260e01b7bffffffffffffffffffffffffffffffffffffffffffffffffffffffff1916817bffffffffffffffffffffffffffffffffffffffffffffffffffffffff1916149150506126f0565b600190505b949350505050565b600080600090507a184f03e93ff9f4daa797ed6e38ed64bf6a1f0100000000000000008310612756577a184f03e93ff9f4daa797ed6e38ed64bf6a1f010000000000000000838161274c5761274b614192565b5b0492506040810190505b6d04ee2d6d415b85acef81000000008310612793576d04ee2d6d415b85acef8100000000838161278957612788614192565b5b0492506020810190505b662386f26fc1000083106127c257662386f26fc1000083816127b8576127b7614192565b5b0492506010810190505b6305f5e10083106127eb576305f5e10083816127e1576127e0614192565b5b0492506008810190505b612710831061281057612710838161280657612805614192565b5b0492506004810190505b60648310612833576064838161282957612828614192565b5b0492506002810190505b600a8310612842576001810190505b80915050919050565b61285583836128c9565b6128626000848484612571565b6128a1576040517f08c379a000000000000000000000000000000000000000000000000000000000815260040161289890614098565b60405180910390fd5b505050565b6000808273ffffffffffffffffffffffffffffffffffffffff163b119050919050565b600073ffffffffffffffffffffffffffffffffffffffff168273ffffffffffffffffffffffffffffffffffffffff1603612938576040517f08c379a000000000000000000000000000000000000000000000000000000000815260040161292f90614555565b60405180910390fd5b61294181612404565b15612981576040517f08c379a0000000000000000000000000000000000000000000000000000000008152600401612978906145c1565b60405180910390fd5b61298f600083836001612445565b61299881612404565b156129d8576040517f08c379a00000000000000000000000000000000000000000000000000000000081526004016129cf906145c1565b60405180910390fd5b6001600360008473ffffffffffffffffffffffffffffffffffffffff1673ffffffffffffffffffffffffffffffffffffffff16815260200190815260200160002060008282540192505081905550816002600083815260200190815260200160002060006101000a81548173ffffffffffffffffffffffffffffffffffffffff021916908373ffffffffffffffffffffffffffffffffffffffff160217905550808273ffffffffffffffffffffffffffffffffffffffff16600073ffffffffffffffffffffffffffffffffffffffff167fddf252ad1be2c89b69c2b068fc378daa952ba7f163c4a11628f55a4df523b3ef60405160405180910390a4612ae260008383600161256b565b5050565b6000604051905090565b600080fd5b600080fd5b60007fffffffff0000000000000000000000000000000000000000000000000000000082169050919050565b612b2f81612afa565b8114612b3a57600080fd5b50565b600081359050612b4c81612b26565b92915050565b600060208284031215612b6857612b67612af0565b5b6000612b7684828501612b3d565b91505092915050565b60008115159050919050565b612b9481612b7f565b82525050565b6000602082019050612baf6000830184612b8b565b92915050565b600081519050919050565b600082825260208201905092915050565b60005b83811015612bef578082015181840152602081019050612bd4565b60008484015250505050565b6000601f19601f8301169050919050565b6000612c1782612bb5565b612c218185612bc0565b9350612c31818560208601612bd1565b612c3a81612bfb565b840191505092915050565b60006020820190508181036000830152612c5f8184612c0c565b905092915050565b6000819050919050565b612c7a81612c67565b8114612c8557600080fd5b50565b600081359050612c9781612c71565b92915050565b600060208284031215612cb357612cb2612af0565b5b6000612cc184828501612c88565b91505092915050565b600073ffffffffffffffffffffffffffffffffffffffff82169050919050565b6000612cf582612cca565b9050919050565b612d0581612cea565b82525050565b6000602082019050612d206000830184612cfc565b92915050565b612d2f81612cea565b8114612d3a57600080fd5b50565b600081359050612d4c81612d26565b92915050565b60008060408385031215612d6957612d68612af0565b5b6000612d7785828601612d3d565b9250506020612d8885828601612c88565b9150509250929050565b600080600060608486031215612dab57612daa612af0565b5b6000612db986828701612d3d565b9350506020612dca86828701612d3d565b9250506040612ddb86828701612c88565b9150509250925092565b600080fd5b600080fd5b7f4e487b7100000000000000000000000000000000000000000000000000000000600052604160045260246000fd5b612e2782612bfb565b810181811067ffffffffffffffff82111715612e4657612e45612def565b5b80604052505050565b6000612e59612ae6565b9050612e658282612e1e565b919050565b600067ffffffffffffffff821115612e8557612e84612def565b5b612e8e82612bfb565b9050602081019050919050565b82818337600083830152505050565b6000612ebd612eb884612e6a565b612e4f565b905082815260208101848484011115612ed957612ed8612dea565b5b612ee4848285612e9b565b509392505050565b600082601f830112612f0157612f00612de5565b5b8135612f11848260208601612eaa565b91505092915050565b600060208284031215612f3057612f2f612af0565b5b600082013567ffffffffffffffff811115612f4e57612f4d612af5565b5b612f5a84828501612eec565b91505092915050565b600080fd5b600080fd5b60008083601f840112612f8357612f82612de5565b5b8235905067ffffffffffffffff811115612fa057612f9f612f63565b5b602083019150836001820283011115612fbc57612fbb612f68565b5b9250929050565b60008060008060408587031215612fdd57612fdc612af0565b5b600085013567ffffffffffffffff811115612ffb57612ffa612af5565b5b61300787828801612f6d565b9450945050602085013567ffffffffffffffff81111561302a57613029612af5565b5b61303687828801612f6d565b925092505092959194509250565b60006020828403121561305a57613059612af0565b5b600061306884828501612d3d565b91505092915050565b61307a81612c67565b82525050565b60006020820190506130956000830184613071565b92915050565b600080602083850312156130b2576130b1612af0565b5b600083013567ffffffffffffffff8111156130d0576130cf612af5565b5b6130dc85828601612f6d565b92509250509250929050565b6130f181612b7f565b81146130fc57600080fd5b50565b60008135905061310e816130e8565b92915050565b6000806040838503121561312b5761312a612af0565b5b600061313985828601612d3d565b925050602061314a858286016130ff565b9150509250929050565b600067ffffffffffffffff82111561316f5761316e612def565b5b61317882612bfb565b9050602081019050919050565b600061319861319384613154565b612e4f565b9050828152602081018484840111156131b4576131b3612dea565b5b6131bf848285612e9b565b509392505050565b600082601f8301126131dc576131db612de5565b5b81356131ec848260208601613185565b91505092915050565b6000806000806080858703121561320f5761320e612af0565b5b600061321d87828801612d3d565b945050602061322e87828801612d3d565b935050604061323f87828801612c88565b925050606085013567ffffffffffffffff8111156132605761325f612af5565b5b61326c878288016131c7565b91505092959194509250565b6000806040838503121561328f5761328e612af0565b5b600061329d85828601612d3d565b92505060206132ae85828601612d3d565b9150509250929050565b7f4e487b7100000000000000000000000000000000000000000000000000000000600052602260045260246000fd5b600060028204905060018216806132ff57607f821691505b602082108103613312576133116132b8565b5b50919050565b7f4552433732313a20617070726f76616c20746f2063757272656e74206f776e6560008201527f7200000000000000000000000000000000000000000000000000000000000000602082015250565b6000613374602183612bc0565b915061337f82613318565b604082019050919050565b600060208201905081810360008301526133a381613367565b9050919050565b7f4552433732313a20617070726f76652063616c6c6572206973206e6f7420746f60008201527f6b656e206f776e6572206f7220617070726f76656420666f7220616c6c000000602082015250565b6000613406603d83612bc0565b9150613411826133aa565b604082019050919050565b60006020820190508181036000830152613435816133f9565b9050919050565b7f4552433732313a2063616c6c6572206973206e6f7420746f6b656e206f776e6560008201527f72206f7220617070726f76656400000000000000000000000000000000000000602082015250565b6000613498602d83612bc0565b91506134a38261343c565b604082019050919050565b600060208201905081810360008301526134c78161348b565b9050919050565b7f4f6e6c79204f776e657220576974686472617720416d6f756e74730000000000600082015250565b6000613504601b83612bc0565b915061350f826134ce565b602082019050919050565b60006020820190508181036000830152613533816134f7565b9050919050565b600081905092915050565b50565b600061355560008361353a565b915061356082613545565b600082019050919050565b600061357682613548565b9150819050919050565b7f4661696c656420746f207769746864726177204d617469630000000000000000600082015250565b60006135b6601883612bc0565b91506135c182613580565b602082019050919050565b600060208201905081810360008301526135e5816135a9565b9050919050565b7f4552433732313a20696e76616c696420746f6b656e2049440000000000000000600082015250565b6000613622601883612bc0565b915061362d826135ec565b602082019050919050565b6000602082019050818103600083015261365181613615565b9050919050565b600081905092915050565b600061366f8385613658565b935061367c838584612e9b565b82840190509392505050565b6000613695828486613663565b91508190509392505050565b7f596f7520617265204e6f7420746865204f776e6572204f6620446f6d61696e00600082015250565b60006136d7601f83612bc0565b91506136e2826136a1565b602082019050919050565b60006020820190508181036000830152613706816136ca565b9050919050565b600082905092915050565b60008190508160005260206000209050919050565b60006020601f8301049050919050565b600082821b905092915050565b60006008830261377a7fffffffffffffffffffffffffffffffffffffffffffffffffffffffffffffffff8261373d565b613784868361373d565b95508019841693508086168417925050509392505050565b6000819050919050565b60006137c16137bc6137b784612c67565b61379c565b612c67565b9050919050565b6000819050919050565b6137db836137a6565b6137ef6137e7826137c8565b84845461374a565b825550505050565b600090565b6138046137f7565b61380f8184846137d2565b505050565b5b81811015613833576138286000826137fc565b600181019050613815565b5050565b601f8211156138785761384981613718565b6138528461372d565b81016020851015613861578190505b61387561386d8561372d565b830182613814565b50505b505050565b600082821c905092915050565b600061389b6000198460080261387d565b1980831691505092915050565b60006138b4838361388a565b9150826002028217905092915050565b6138ce838361370d565b67ffffffffffffffff8111156138e7576138e6612def565b5b6138f182546132e7565b6138fc828285613837565b6000601f83116001811461392b5760008415613919578287013590505b61392385826138a8565b86555061398b565b601f19841661393986613718565b60005b828110156139615784890135825560018201915060208501945060208101905061393c565b8683101561397e578489013561397a601f89168261388a565b8355505b6001600288020188555050505b50505050505050565b7f4552433732313a2061646472657373207a65726f206973206e6f74206120766160008201527f6c6964206f776e65720000000000000000000000000000000000000000000000602082015250565b60006139f0602983612bc0565b91506139fb82613994565b604082019050919050565b60006020820190508181036000830152613a1f816139e3565b9050919050565b6000613a3182612bb5565b613a3b8185613658565b9350613a4b818560208601612bd1565b80840191505092915050565b6000613a638285613a26565b9150613a6f8284613a26565b91508190509392505050565b7f4e6f7420456e6f756768204d6174696373000000000000000000000000000000600082015250565b6000613ab1601183612bc0565b9150613abc82613a7b565b602082019050919050565b60006020820190508181036000830152613ae081613aa4565b9050919050565b7f2e00000000000000000000000000000000000000000000000000000000000000600082015250565b6000613b1d600183613658565b9150613b2882613ae7565b600182019050919050565b60008154613b40816132e7565b613b4a8186613658565b94506001821660008114613b655760018114613b7a57613bad565b60ff1983168652811515820286019350613bad565b613b8385613718565b60005b83811015613ba557815481890152600182019150602081019050613b86565b838801955050505b50505092915050565b6000613bc3828587613663565b9150613bce82613b10565b9150613bda8284613b33565b9150819050949350505050565b6000613bf38286613b33565b9150613bff8285613a26565b9150613c0b8284613b33565b9150819050949350505050565b7f7b226e616d65223a202200000000000000000000000000000000000000000000600082015250565b6000613c4e600a83613658565b9150613c5982613c18565b600a82019050919050565b7f222c20226465736372697074696f6e223a20224120646f6d61696e206f6e207460008201527f6865204e696e6a61206e616d652073657276696365222c2022696d616765223a60208201527f2022646174613a696d6167652f7376672b786d6c3b6261736536342c00000000604082015250565b6000613ce6605c83613658565b9150613cf182613c64565b605c82019050919050565b7f222c226c656e677468223a220000000000000000000000000000000000000000600082015250565b6000613d32600c83613658565b9150613d3d82613cfc565b600c82019050919050565b7f227d000000000000000000000000000000000000000000000000000000000000600082015250565b6000613d7e600283613658565b9150613d8982613d48565b600282019050919050565b6000613d9f82613c41565b9150613dab8286613a26565b9150613db682613cd9565b9150613dc28285613a26565b9150613dcd82613d25565b9150613dd98284613a26565b9150613de482613d71565b9150819050949350505050565b7f646174613a6170706c69636174696f6e2f6a736f6e3b6261736536342c000000600082015250565b6000613e27601d83613658565b9150613e3282613df1565b601d82019050919050565b6000613e4882613e1a565b9150613e548284613a26565b915081905092915050565b60006040820190508181036000830152613e798185612c0c565b90508181036020830152613e8d8184612c0c565b90509392505050565b7f4552433732313a207472616e736665722066726f6d20696e636f72726563742060008201527f6f776e6572000000000000000000000000000000000000000000000000000000602082015250565b6000613ef2602583612bc0565b9150613efd82613e96565b604082019050919050565b60006020820190508181036000830152613f2181613ee5565b9050919050565b7f4552433732313a207472616e7366657220746f20746865207a65726f2061646460008201527f7265737300000000000000000000000000000000000000000000000000000000602082015250565b6000613f84602483612bc0565b9150613f8f82613f28565b604082019050919050565b60006020820190508181036000830152613fb381613f77565b9050919050565b7f4552433732313a20617070726f766520746f2063616c6c657200000000000000600082015250565b6000613ff0601983612bc0565b9150613ffb82613fba565b602082019050919050565b6000602082019050818103600083015261401f81613fe3565b9050919050565b7f4552433732313a207472616e7366657220746f206e6f6e20455243373231526560008201527f63656976657220696d706c656d656e7465720000000000000000000000000000602082015250565b6000614082603283612bc0565b915061408d82614026565b604082019050919050565b600060208201905081810360008301526140b181614075565b9050919050565b7f4e487b7100000000000000000000000000000000000000000000000000000000600052603260045260246000fd5b7f4e487b7100000000000000000000000000000000000000000000000000000000600052601160045260246000fd5b600061412182612c67565b915061412c83612c67565b9250828201905080821115614144576141436140e7565b5b92915050565b600061415582612c67565b91507fffffffffffffffffffffffffffffffffffffffffffffffffffffffffffffffff8203614187576141866140e7565b5b600182019050919050565b7f4e487b7100000000000000000000000000000000000000000000000000000000600052601260045260246000fd5b600060808201905081810360008301526141db8187612c0c565b905081810360208301526141ef8186612c0c565b905081810360408301526142038185612c0c565b90506142126060830184613071565b95945050505050565b600061422682612c67565b915061423183612c67565b92508261424157614240614192565b5b828204905092915050565b600061425782612c67565b915061426283612c67565b925082820261427081612c67565b91508282048414831517614287576142866140e7565b5b5092915050565b7f45524337323155524953746f726167653a2055524920736574206f66206e6f6e60008201527f6578697374656e7420746f6b656e000000000000000000000000000000000000602082015250565b60006142ea602e83612bc0565b91506142f58261428e565b604082019050919050565b60006020820190508181036000830152614319816142dd565b9050919050565b61432982612bb5565b67ffffffffffffffff81111561434257614341612def565b5b61434c82546132e7565b614357828285613837565b600060209050601f83116001811461438a5760008415614378578287015190505b61438285826138a8565b8655506143ea565b601f19841661439886613718565b60005b828110156143c05784890151825560018201915060208501945060208101905061439b565b868310156143dd57848901516143d9601f89168261388a565b8355505b6001600288020188555050505b505050505050565b60006143fd82612c67565b915061440883612c67565b92508282039050818111156144205761441f6140e7565b5b92915050565b600081519050919050565b600082825260208201905092915050565b600061444d82614426565b6144578185614431565b9350614467818560208601612bd1565b61447081612bfb565b840191505092915050565b60006080820190506144906000830187612cfc565b61449d6020830186612cfc565b6144aa6040830185613071565b81810360608301526144bc8184614442565b905095945050505050565b6000815190506144d681612b26565b92915050565b6000602082840312156144f2576144f1612af0565b5b6000614500848285016144c7565b91505092915050565b7f4552433732313a206d696e7420746f20746865207a65726f2061646472657373600082015250565b600061453f602083612bc0565b915061454a82614509565b602082019050919050565b6000602082019050818103600083015261456e81614532565b9050919050565b7f4552433732313a20746f6b656e20616c7265616479206d696e74656400000000600082015250565b60006145ab601c83612bc0565b91506145b682614575565b602082019050919050565b600060208201905081810360008301526145da8161459e565b905091905056fe0a2d2d2d2d2d2d2d2d2d2d2d2d2d2d2d2d2d2d2d2d2d2d2d2d2d2d2d2d2d2d2d2d2d2d2d2d2d2d2d2d2d2d2d2d2d2d2d2d2d2d2d2d2d2d2d2d5265676973746572696e672025732e2573206f6e2074686520636f6e7472616374207769746820746f6b656e49442025642d2d2d2d2d2d2d2d2d2d2d2d2d2d2d2d2d2d2d2d2d2d2d2d2d2d2d2d2d2d2d2d2d2d2d2d2d2d2d2d2d2d2d2d2d2d2d2d2d2d2d2d2d2d2d2d0a4142434445464748494a4b4c4d4e4f505152535455565758595a6162636465666768696a6b6c6d6e6f707172737475767778797a303132333435363738392b2fa264697066735822122049756b9c2122366bd980465c25e984232f68ed8ddfe6d4e8de2da2efea2b3eae64736f6c634300081100333c73766720786d6c6e733d22687474703a2f2f7777772e77332e6f72672f323030302f737667222077696474683d2232373022206865696768743d22323730222066696c6c3d226e6f6e65223e3c706174682066696c6c3d2275726c282342292220643d224d302030683237307632373048307a222f3e3c646566733e3c66696c7465722069643d22412220636f6c6f722d696e746572706f6c6174696f6e2d66696c746572733d2273524742222066696c746572556e6974733d227573657253706163654f6e55736522206865696768743d22323730222077696474683d22323730223e3c666544726f70536861646f772064783d2230222064793d22312220737464446576696174696f6e3d22322220666c6f6f642d6f7061636974793d222e323235222077696474683d223230302522206865696768743d2232303025222f3e3c2f66696c7465723e3c2f646566733e3c7061746820643d224d37322e3836332034322e393439632d2e3636382d2e3338372d312e3432362d2e35392d322e3139372d2e3539732d312e3532392e3230342d322e3139372e35396c2d31302e30383120362e3033322d362e383520332e3933342d31302e30383120362e303332632d2e3636382e3338372d312e3432362e35392d322e3139372e3539732d312e3532392d2e3230342d322e3139372d2e35396c2d382e3031332d342e37323161342e353220342e35322030203020312d312e3538392d312e363136632d2e3338342d2e3636352d2e3539342d312e3431382d2e3630382d322e313837762d392e3331632d2e3031332d2e3737352e3138352d312e3533382e3537322d322e32303861342e323520342e323520302030203120312e3632352d312e3539356c372e3838342d342e3539632e3636382d2e33383720312e3432362d2e353920322e3139372d2e353973312e3532392e32303420322e3139372e35396c372e38383420342e353961342e353220342e353220302030203120312e35383920312e363136632e3338342e3636352e35393420312e3431382e36303820322e31383776362e3033326c362e38352d342e303635762d362e303332632e3031332d2e3737352d2e3138352d312e3533382d2e3537322d322e32303861342e323520342e32352030203020302d312e3632352d312e3539354c34312e3435362032342e3539632d2e3636382d2e3338372d312e3432362d2e35392d322e3139372d2e3539732d312e3532392e3230342d322e3139372e35396c2d31342e38363420382e36353561342e323520342e32352030203020302d312e36323520312e353935632d2e3338372e36372d2e35383520312e3433342d2e35373220322e3230387631372e343431632d2e3031332e3737352e31383520312e3533382e35373220322e32303861342e323520342e323520302030203020312e36323520312e3539356c31342e38363420382e363535632e3636382e33383720312e3432362e353920322e3139372e353973312e3532392d2e32303420322e3139372d2e35396c31302e3038312d352e39303120362e38352d342e3036352031302e3038312d352e393031632e3636382d2e33383720312e3432362d2e353920322e3139372d2e353973312e3532392e32303420322e3139372e35396c372e38383420342e353961342e353220342e353220302030203120312e35383920312e363136632e3338342e3636352e35393420312e3431382e36303820322e31383776392e333131632e3031332e3737352d2e31383520312e3533382d2e35373220322e32303861342e323520342e32352030203020312d312e36323520312e3539356c2d372e38383420342e373231632d2e3636382e3338372d312e3432362e35392d322e3139372e3539732d312e3532392d2e3230342d322e3139372d2e35396c2d372e3838342d342e353961342e353220342e35322030203020312d312e3538392d312e363136632d2e3338352d2e3636352d2e3539342d312e3431382d2e3630382d322e313837762d362e3033326c2d362e383520342e30363576362e303332632d2e3031332e3737352e31383520312e3533382e35373220322e32303861342e323520342e323520302030203020312e36323520312e3539356c31342e38363420382e363535632e3636382e33383720312e3432362e353920322e3139372e353973312e3532392d2e32303420322e3139372d2e35396c31342e3836342d382e363535632e3635372d2e33393420312e3230342d2e393520312e3538392d312e363136732e3539342d312e3431382e3630392d322e3138375635352e353338632e3031332d2e3737352d2e3138352d312e3533382d2e3537322d322e32303861342e323520342e32352030203020302d312e3632352d312e3539356c2d31342e3939332d382e3738367a222066696c6c3d2223666666222f3e3c646566733e3c6c696e6561724772616469656e742069643d2242222078313d2230222079313d2230222078323d22323730222079323d2232373022206772616469656e74556e6974733d227573657253706163654f6e557365223e3c73746f702073746f702d636f6c6f723d2223636235656565222f3e3c73746f70206f66667365743d2231222073746f702d636f6c6f723d2223306364376534222073746f702d6f7061636974793d222e3939222f3e3c2f6c696e6561724772616469656e743e3c2f646566733e3c7465787420783d2233322e352220793d223233312220666f6e742d73697a653d223237222066696c6c3d2223666666222066696c7465723d2275726c282341292220666f6e742d66616d696c793d22506c7573204a616b617274612053616e732c44656a6156752053616e732c4e6f746f20436f6c6f7220456d6f6a692c4170706c6520436f6c6f7220456d6f6a692c73616e732d73657269662220666f6e742d7765696768743d22626f6c64223e",
  "linkReferences": {},
  "deployedLinkReferences": {}
}